{
  "contractName": "number_list",
  "abi": [
    {
      "inputs": [
        {
          "internalType": "uint256",
          "name": "x",
          "type": "uint256"
        }
      ],
      "name": "number",
      "outputs": [
        {
          "internalType": "uint256[]",
          "name": "",
          "type": "uint256[]"
        }
      ],
      "stateMutability": "pure",
      "type": "function",
      "constant": true
    },
    {
      "inputs": [
        {
          "internalType": "uint256[]",
          "name": "d",
          "type": "uint256[]"
        }
      ],
      "name": "total",
      "outputs": [
        {
          "internalType": "uint256",
          "name": "",
          "type": "uint256"
        }
      ],
      "stateMutability": "pure",
      "type": "function",
      "constant": true
    }
  ],
  "bytecode": "0x608060405234801561001057600080fd5b5061062e806100206000396000f3fe608060405234801561001057600080fd5b50600436106100365760003560e01c8063431aabc21461003b5780635188d7c71461006b575b600080fd5b610055600480360381019061005091906101ee565b61009b565b60405161006291906102d9565b60405180910390f35b61008560048036038101906100809190610454565b610141565b60405161009291906104ac565b60405180910390f35b606060006001836100ac91906104f6565b67ffffffffffffffff8111156100c5576100c4610311565b5b6040519080825280602002602001820160405280156100f35781602001602082028036833780820191505090505b5090506000600190505b83811161013757808282815181106101185761011761054c565b5b602002602001018181525050808061012f9061057b565b9150506100fd565b5080915050919050565b6000806000905060005b6001845161015991906105c4565b811161019a578381815181106101725761017161054c565b5b60200260200101518261018591906104f6565b915080806101929061057b565b91505061014b565b5080915050919050565b6000604051905090565b600080fd5b600080fd5b6000819050919050565b6101cb816101b8565b81146101d657600080fd5b50565b6000813590506101e8816101c2565b92915050565b600060208284031215610204576102036101ae565b5b6000610212848285016101d9565b91505092915050565b600081519050919050565b600082825260208201905092915050565b6000819050602082019050919050565b610250816101b8565b82525050565b60006102628383610247565b60208301905092915050565b6000602082019050919050565b60006102868261021b565b6102908185610226565b935061029b83610237565b8060005b838110156102cc5781516102b38882610256565b97506102be8361026e565b92505060018101905061029f565b5085935050505092915050565b600060208201905081810360008301526102f3818461027b565b905092915050565b600080fd5b6000601f19601f8301169050919050565b7f4e487b7100000000000000000000000000000000000000000000000000000000600052604160045260246000fd5b61034982610300565b810181811067ffffffffffffffff8211171561036857610367610311565b5b80604052505050565b600061037b6101a4565b90506103878282610340565b919050565b600067ffffffffffffffff8211156103a7576103a6610311565b5b602082029050602081019050919050565b600080fd5b60006103d06103cb8461038c565b610371565b905080838252602082019050602084028301858111156103f3576103f26103b8565b5b835b8181101561041c578061040888826101d9565b8452602084019350506020810190506103f5565b5050509392505050565b600082601f83011261043b5761043a6102fb565b5b813561044b8482602086016103bd565b91505092915050565b60006020828403121561046a576104696101ae565b5b600082013567ffffffffffffffff811115610488576104876101b3565b5b61049484828501610426565b91505092915050565b6104a6816101b8565b82525050565b60006020820190506104c1600083018461049d565b92915050565b7f4e487b7100000000000000000000000000000000000000000000000000000000600052601160045260246000fd5b6000610501826101b8565b915061050c836101b8565b9250827fffffffffffffffffffffffffffffffffffffffffffffffffffffffffffffffff03821115610541576105406104c7565b5b828201905092915050565b7f4e487b7100000000000000000000000000000000000000000000000000000000600052603260045260246000fd5b6000610586826101b8565b91507fffffffffffffffffffffffffffffffffffffffffffffffffffffffffffffffff8214156105b9576105b86104c7565b5b600182019050919050565b60006105cf826101b8565b91506105da836101b8565b9250828210156105ed576105ec6104c7565b5b82820390509291505056fea2646970667358221220a966817cdccdd3869077cc3e5d37ae76462d2a08b7126afb9f15e8bca7d9d7ae64736f6c634300080b0033",
  "immutableReferences": {},
  "source": "// SPDX-License-Identifier: MIT\npragma solidity ^0.8.11;\n\ncontract number_list{\n\n\n    function number(uint  x) public pure returns(uint[] memory) {\n        uint[] memory n = new uint[](x+1);\n        for (uint i=1;i<=x;i++){\n            n[i]=i;\n        }\n        return n;\n}\n    function total(uint[] memory d) public pure returns (uint){\n        uint sum=0;\n\n        for  ( uint j=0 ;j<=(d.length)-1;j++){\n            sum=sum+d[j];\n        }\n        return sum;\n    }\n}\n\n\n",
  "sourcePath": "/home/dinesh/number_list/contracts/number_list.sol",
  "compiler": {
    "name": "solc",
    "version": "0.8.11+commit.d7f03943.Emscripten.clang"
  },
  "schemaVersion": "3.4.5",
  "updatedAt": "2022-03-04T09:16:39.793Z",
  "networkType": "ethereum",
  "devdoc": {
    "kind": "dev",
    "methods": {},
    "version": 1
  },
  "userdoc": {
    "kind": "user",
    "methods": {},
    "version": 1
  }
}